:100000000C9444010C94860F0C945F0F0C94380FE1
:100010000C94110F0C946C010C946C010C94EA0E6E
:100020000C946C010C946C010C94E70B0C945E0C1A
:100030000C946C010C946C010C946C010C946C018C
:100040000C946C010C94AD0F0C946C010C946C012D
:100050000C946C010C946C010C946C010C94A00E2B
:100060000C946C010C946C010C946C010C946C015C
:100070000C946C010C946C010C946C010C946C014C
:100080000C946C010C946C010C946C010C946C013C
:100090000C946C010C946C010C946C010C94EF109A
:1000A0000C946C010C946C010C946C016364696E8B
:1000B0006F70737578585B00000000002300260005
:1000C00029002C002F00003E800052F4F4D00034B0
:1000D00015004FF4F4D0001A0B009DF4F4D0000D7D
:1000E00005013BF4F4D00006830275F3F3D000035E
:1000F0004104EAF2F2D000022C07AEE2E2D00001A5
:10010000000800E1E1D00000801000E0E0D0000233
:100110004003334242D0013E800052F4F5D0013416
:1001200015004FF4F4D0011A0B009DF4F4D0010D2A
:1001300005013BF4F4D00106830275F3F3D001030B
:100140004104EAF2F2D001022C07AEE2E2D0010152
:10015000000800E1E1D00100801000E0E0D00102E1
:100160004003334242D0087D0000108888D00868E0
:100170002B0010F1F1D00834150010F5F5D0081A55
:100180000B0010F4F4D0080D050010F3F3D00806AE
:10019000830010F2F2D00803E80010E2E2D0000081
:1001A0000000240027002A002D003000000000007D
:1001B000250028002B002E00310004040404040351
:1001C00004050202020204030202020206060606F7
:1001D000060604040202020404040802011040801E
:1001E000401020408040800802040180402010021E
:1001F00001108010204040200000000200090F0084
:1002000000030401000C00000000000000000000DA
:1002100000000000000000080B00020202000009BC
:100220000400000102020000052400100105240161
:1002300001010424020605240600010705810310BC
:10024000004009040100020A000000070502024004
:1002500000000705830240000004030904120100A6
:1002600002EF0201409A230C8000010102030141C8
:1002700064616672756974004665617468657220B0
:10028000333275340000DD1111241FBECFEFDAE0E8
:10029000DEBFCDBF12E0A0E0B1E0E0EEFAE302C0C5
:1002A00005900D92A630B107D9F724E0A6E0B2E0A0
:1002B00001C01D92AD36B207E1F711E0C4E4D1E010
:1002C00004C02197FE010E94EF18C334D107C9F77B
:1002D0000E949A120C946E1D0C940000CF92DF9233
:1002E000EF92FF920F93CF93DF937C01CB01EA0152
:1002F000D7016D917C916F5F7F4F0E94DB18F701F2
:1003000042855385452BD9F70480F581E02D880F70
:10031000991FE80FF91F40815181452B71F4D701D6
:1003200018964D915C9119971496ED91FC91E80FF8
:10033000F91F465E5F4F51834083F7014481558129
:10034000840F951FDC01CD90DC90D6015896ED917D
:10035000FC91AE01420F531FDE016D91CD01DA0118
:100360006C93BC016C1B7D0B621773073CF4DC01C2
:100370007D91CD01DA016C916727F2CF2F5F3F4F5E
:100380008FEF808381838881881F8827881F84500E
:1003900082838881880F8383898184838A8190E026
:1003A0009595879585838A81982F97959927979515
:1003B000968381E32330310551F18B8186958695B3
:1003C000890F86838B81982F9295990F990F907C36
:1003D00097838AE324303105D1F08C818695869508
:1003E0008695890F87838C81982F9295990F907E9F
:1003F000908783E42530310551F08D8182958F708F
:10040000890F80878D818295807F81878CE48287A8
:10041000F701D386C286078720853185828593853B
:100420008217930768F480859185F701918780870B
:10043000DF91CF910F91FF90EF90DF90CF900895D3
:1004400082859385F2CF90918D02911103C08FEF39
:100450009FEF08954FB7F89492E09093E900909140
:10046000F200292F30E01216130614F421E030E0D8
:10047000232B29F084E680938C028091F10099234C
:1004800039F02091F200211103C02BE62093E800FF
:100490004FBF9923E1F290E0089583E08093E90053
:1004A0008091F200882319F08AE38093E800089590
:1004B000E82FF0E0EE0FFF1FE15FFE4F71836083D6
:1004C0008230E1F048F4813091F0809169008360DE
:1004D00080936900E89A08958330B9F08430A9F7D1
:1004E00080916A00806380936A00EE9A08958091FB
:1004F00069008C6080936900E99A08958091690091
:10050000806380936900EA9A089580916900806C05
:1005100080936900EB9A08952FB7F89483E0809355
:10052000E9009091E800892F807295FF04C09091B6
:10053000F20080E4891B2FBF08958091840281110D
:100540000DC082E08093800284E08093810210924B
:1005500083021092820281E08093840280E892E01C
:1005600008950C944D0240911B0250911C02209161
:10057000190230911A0242175307B4F49091E8001F
:100580009570E1F39091E80092FD19C08093F1001D
:1005900080911B0290911C0201968F739927892BE1
:1005A00019F48EEF8093E80080911B0290911C0259
:1005B000019690931C0280931B0281E0089580E0D5
:1005C0000895DF92EF92FF920F931F93CF93DF93E3
:1005D000D82E8A01EB017B01E40EF51ECE15DF0556
:1005E00059F0D7FE12C0FE0184910E94B3022196F9
:1005F0008111F4CF0FEF1FEFC801DF91CF911F9151
:100600000F91FF90EF90DF9008958881EECF0F93C8
:100610001F93CF93DF931F92CDB7DEB782E089831C
:1006200042E450E067E172E080E80E94E1020E944B
:100630009D02DC0112960D911C910115110589F0A6
:10064000D801ED91FC910280F381E02DBE016F5F36
:100650007F4FC801099597FD04C0F80100851185F9
:10066000ECCF89810F90DF91CF911F910F91089569
:10067000CF93DF931F92CDB7DEB76983DC01ED9195
:10068000FC910280F381E02D41E050E0BE016F5FFC
:100690007F4F09950F90DF91CF9108950E948C02B2
:1006A00090E00895FC018485958597FD05C02FEFA6
:1006B0003FEF3587248708950C942302CF93DF936F
:1006C000EC018C859D8597FF04C00E9423029D87C5
:1006D0008C878C859D85DF91CF910895FC01848561
:1006E000958597FD0BC09FB7F89482E08093E90051
:1006F0008091F2009FBF90E0019608959FB7F89413
:1007000082E08093E9008091F2009FBF90E008951D
:1007100081508F3008F047C0E82FF0E0EE56FC4FD4
:100720000C94EF18AF03B303A103A703AB03D303E8
:10073000D303D303B603BC03C003C403CA03D30368
:10074000CE03809180008F77809380000895809100
:1007500080008F7DF9CF80918000877FF5CF84B5B1
:100760008F7784BD089584B58F7DFBCF80919000F5
:100770008F77809390000895809190008F7DF9CFBE
:1007800080919000877FF5CF8091C0008F77809314
:10079000C00008958091C0008F7DF9CF8091C20084
:1007A000877F8093C20008951F93CF93DF93282FF4
:1007B00030E0F901E850FE4F8491F901E752FE4F15
:1007C000D491F901E654FE4FC491CC23A9F0162F21
:1007D00081110E948803EC2FF0E0EE0FFF1FE4551B
:1007E000FE4FA591B4918FB7F894EC91111108C008
:1007F000D095DE23DC938FBFDF91CF911F910895B9
:10080000DE2BF8CFCF93DF9390E0FC01E752FE4F51
:10081000249186549E4FFC0184918823D1F090E06E
:10082000880F991FFC01E256FE4FA591B491FC017F
:10083000E455FE4FC591D49161110EC09FB7F89455
:100840008C91E22FE0958E238C932881E223E8831C
:100850009FBFDF91CF9108958FB7F894EC91E22B71
:10086000EC938FBFF6CF3FB7F8948091150290912B
:100870001602A0911702B091180226B5A89B05C0D8
:100880002F3F19F00196A11DB11D3FBFBA2FA92F0F
:10089000982F8827BC01CD01620F711D811D911D0C
:1008A00043E0660F771F881F991F4A95D1F7089577
:1008B0008F929F92AF92BF92CF92DF92EF92FF9270
:1008C0006B017C010E9433044B015C01C114D10413
:1008D000E104F104B9F00E943304681979098A0926
:1008E0009B09683E73408105910580F321E0C21A9F
:1008F000D108E108F10888EE880E83E0981EA11C5B
:10090000B11CE4CFFF90EF90DF90CF90BF90AF90FD
:100910009F908F9008958F929F92AF92BF92CF92A7
:10092000DF92EF92FF920F931F93CF93DF936C01AF
:100930007B018A0180910B01882309F45BC08091BF
:100940008D02882309F456C080911F0280FF05C0E4
:100950008091E00082608093E000E801B12C8AEF92
:10096000A82E93E0892E2AE3922E209711F4BB2023
:10097000D9F10E948C0281110AC0AA94AA20D1F157
:1009800061E070E080E090E00E945804EECF8C17A8
:100990001D0611F00CF08C2F9FB7F8948092E9009F
:1009A0002091E80025FD02C09FBFDFCF282F30E057
:1009B000C21BD30BF701815020F041914093F1000D
:1009C000FACFE20EF31EBB2021F09092E800B12C8A
:1009D000EBCF8091E80085FDE7CF9092E800BB2443
:1009E000B394209709F3F3CF84E680931E02101688
:1009F00011063CF081E090E0F6019383828310E0E1
:100A000000E0C801DF91CF911F910F91FF90EF900F
:100A1000DF90CF90BF90AF909F908F9008952FB7A9
:100A2000F8946091110270911202809113029091DA
:100A300014022FBF089508958CE30895CF93DF9398
:100A4000FC01228133812230310569F0EC01678D90
:100A5000858D0E94D40360E08C8D0E94D40382E0D7
:100A600090E09B838A83DF91CF910895BF92CF92CC
:100A7000DF92EF92FF920F931F93CF93DF93EC01DE
:100A8000162FB42EC52EF22EDFB6F894898D9A8DCE
:100A9000DC01ED91FC910088F189E02D099560E081
:100AA0008B8D0E94D403898D9A8D612F6068DC0143
:100AB000ED91FC910190F081E02D0995E82E0B2D30
:100AC0001C2DFA94BFEFFB1669F0898D9A8DF80101
:100AD00061918F01DC01ED91FC910190F081E02D9D
:100AE0000995EFCF61E08B8D0E94D403898D9A8D9B
:100AF000DC01ED91FC910288F389E02D0995DFBEC0
:100B00008E2DDF91CF911F910F91FF90EF90DF908D
:100B1000CF90BF900895FF920F931F93CF93DF93D1
:100B2000EC01162FF42E0FB7F894898D9A8DDC0105
:100B3000ED91FC910088F189E02D099560E08B8DA5
:100B40000E94D403898D9A8D612F6068DC01ED913C
:100B5000FC910190F081E02D0995182F898D9A8DD7
:100B6000DC01ED91FC910190F081E02D6F2D099554
:100B700061E08B8D0E94D403898D9A8DDC01ED910B
:100B8000FC910288F389E02D09950FBF812FDF9139
:100B9000CF911F910F91FF900895CF93DF93FC01A8
:100BA000228133812130310549F0EC0140E061E0E0
:100BB0000E948B0581E090E09B838A8381E0DF9136
:100BC000CF9108950F931F93CF93DF93EC01162FCE
:100BD0000FB7F89460E08B8D0E94D403898D9A8DB5
:100BE000DC01ED91FC910190F081E02D612F0995E0
:100BF000898D9A8DDC01ED91FC910190F081E02DC1
:100C000060E00995182F61E08B8D0E94D4030FBF1F
:100C1000812FDF91CF911F910F910895CF93DF9393
:100C2000EC016DE30E94E205482F4E7F6DE3CE019B
:100C3000DF91CF910C948B050F931F93CF938C0171
:100C4000C62F61E00E94E205837ECC714C2F482BB9
:100C500061E0C8010E948B0567E2C8010E94E205BD
:100C600087FFFACFCF911F910F910895CF93DF9314
:100C7000FC01228133812330310529F1EC0182818D
:100C800093810497D1F081A1823154F045E56AE562
:100C9000CF010E948B0540E76CE5CE010E948B05D9
:100CA00040E465E2CE010E948B0560E1CE010E9426
:100CB0001C0684E090E09B838A83C15ADF4F8881C1
:100CC000DF91CF91089580E0FBCFCF93DF93FC01BC
:100CD0002281338122303105B1F0EC0181A18231D2
:100CE00054F045E56AE5CF010E948B0540E76CE5CD
:100CF000CE010E948B056F8DCE010E941C0682E002
:100D000090E09B838A83DF91CF910895BF92CF9229
:100D1000DF92EF92FF920F931F93CF93DF93EC013B
:100D2000B62EC72E142F4D3360F000E0802FDF91D8
:100D3000CF911F910F91FF90EF90DF90CF90BF90D8
:100D40000895E881F9810484F585E02D0995CE01A7
:100D50000E946506E881F9810288F389E02DCE01C1
:100D60000995082F882309F3DFB6F89460E08B8D8E
:100D70000E94D403898D9A8DDC01ED91FC91019044
:100D8000F081E02D60E80995898D9A8DDC01ED9167
:100D9000FC910190F081E02D64E0610F0995898D4F
:100DA0009A8DDC01ED91FC910190F081E02D6A8536
:100DB0000995898D9A8DDC01ED91FC910190F0816E
:100DC000E02D6B850995898D9A8DDC01ED91FC9163
:100DD0000190F081E02D6C850995898D9A8DDC015B
:100DE000ED91FC910190F081E02D6D850995EB2C42
:100DF000FC2C115068F0898D9A8DF70161917F016B
:100E0000DC01ED91FC910190F081E02D0995F1CF8D
:100E100061E08B8D0E94D403DFBE8A819B810397A2
:100E200009F484CF89A1823154F04DE56AE5CE0101
:100E30000E948B054CE76CE5CE010E948B0540E0DB
:100E400065E2CE010E948B056CE0CE010E941C067B
:100E500083E090E09B838A8369CFEF92FF920F93A8
:100E60001F93CF93DF93EC0168E20E94E205182FF5
:100E70008A819B81039751F413FF08C0CE010E9421
:100E800065068C899D8901969D8B8C8B8A819B81BF
:100E9000049709F0ACC012FFAAC064E2CE010E9420
:100EA000E20590E0959587959195819591099F87A9
:100EB0008E870E940F05FE01E05AFF4F6083718309
:100EC00082839383CE010E946506EFB6F89460E0BA
:100ED0008B8D0E94D403898D9A8DDC01ED91FC915C
:100EE0000088F189E02D0995898D9A8DDC01ED91BD
:100EF000FC910190F081E02D60E00995898D9A8D3B
:100F0000DC01ED91FC910190F081E02D60E009950C
:100F1000082F8CEF800F8D3308F05BC0898D9A8D80
:100F2000DC01ED91FC910190F081E02D60E00995EC
:100F30008E838D81811108C09E818C81981721F04C
:100F40008E818F3F09F045C0898D9A8DDC01ED912E
:100F5000FC910190F081E02D60E009958F83898DEF
:100F60009A8DDC01ED91FC910190F081E02D60E023
:100F700009958887898D9A8DDC01ED91FC9101900E
:100F8000F081E02D60E0099589871AA20450110BC9
:100F90008AA1801711069CF4898D9A8DFAA0DC0134
:100FA000ED91FC910190F081E02D60E00995FE014A
:100FB000EF0DF11D83A38AA18F5F8AA3E9CF8A89F0
:100FC0009B8901969B8B8A8B81E0FE01E15AFF4F42
:100FD000808361E08B8D0E94D403898D9A8DDC0122
:100FE000ED91FC910288F389E02D0995EFBEDF9128
:100FF000CF911F910F91FF90EF90089580910E0275
:1010000090910F02009711F00C942D070895809194
:101010000C0290910D02009711F00C942D07089589
:1010200080910A0290910B02009711F00C942D0709
:101030000895CF93DF93EC01898D9A8DDC01ED91BA
:10104000FC910680F781E02D099561E08B8D0E946F
:10105000020461E08B8D0E94D40364E670E080E0BE
:1010600090E00E94580481E0DF91CF9108950895A7
:1010700080910802882361F09FB7F89420910802BC
:1010800080910702213019F48DBB9FBF08958FBF57
:101090000895FC012085918580910802882361F0E4
:1010A0008FB7F89430910802313049F43DB3309352
:1010B00007023DB33DBB8FBF2CBD9DBD08958093FE
:1010C0000702FACF9FB7F89480910602882319F09F
:1010D00081508093060280910602811105C08CB573
:1010E0008F7B8CBD109208029FBF08958CB58F77BF
:1010F0008CBD08958CB580688CBD08956EBD0000D0
:101100000DB407FEFDCF8EB50895FC017383628395
:101110000895FC01778366830895FC0175836483D9
:10112000089508950895FC01848995890895FC0126
:10113000828993890895FC0180899189089580E0CE
:101140000895FC01738362830895FC018281938179
:101150000895FC01868597850895FC018185089591
:10116000FC0180850895FC0187810895FC0186813A
:1011700008954095FC0125854223642B65870895D9
:10118000FC0164870895FC0163870895FC01628770
:101190000895FC0164830895FC01658308958F928E
:1011A0009F92AF92BF92CF92DF92EF92FF92CF9336
:1011B000DF93EC016B010E940F054B015C01F12CE8
:1011C000E12C0E940F05681979098A099B096C15A1
:1011D0007D058E059F0580F48A819B81039789F3A5
:1011E00081E0DF91CF91FF90EF90DF90CF90BF90A3
:1011F000AF909F908F90089580E0F3CFFC01228103
:10120000338123303105D1F381E008958F929F928D
:10121000AF92BF92CF92DF92EF92FF92CF93DF9384
:10122000EC016B010E940F054B015C01F12CE12CDC
:101230000E940F05681979098A099B096C157D05BB
:101240008E059F05A0F4E881F9810280F381E02DED
:10125000CE010995882361F3DF91CF91FF90EF9044
:10126000DF90CF90BF90AF909F908F90089580E0D7
:10127000F3CFCF93DF93EC01E881F9810280F38112
:10128000E02DCE0109958823B9F3DF91CF91089520
:1012900081E00895FC0101900020E9F73197AF014A
:1012A000481B590BBC018EE892E00C948B048F9282
:1012B0009F92AF92BF920F931F93CF93DF93CDB7BF
:1012C000DEB7A1970FB6F894DEBF0FBECDBF19A24F
:1012D000423008F44AE08E010F5D1F4F842E912C9E
:1012E000B12CA12CA50194010E94AA18E62FB901E6
:1012F000CA01EA30F4F4E05DD801EE938D01232BAE
:10130000242B252B79F790E080E0109719F0CD0180
:101310000E944A09A1960FB6F894DEBF0FBECDBF5A
:10132000DF91CF911F910F91BF90AF909F908F90C1
:101330000895E95CE1CF0C944A09CF92DF92EF92D5
:10134000FF92CF93DF936C01990FEE08FF08F7FE31
:1013500019C06DE28EE892E00E943803EC01662726
:101360007727CB016C197D098E099F094AE00E94FD
:1013700057098C0F9D1FDF91CF91FF90EF90DF9069
:10138000CF9008954AE0C701B601DF91CF91FF9059
:10139000EF90DF90CF900C9457090E944A1ACF9299
:1013A000DF92EF92FF920F931F93CF93DF93EC01A5
:1013B0006B018A01E881F9810280F381E02D0995B2
:1013C000F82E8823E1F0C114D104B1F00115110504
:1013D00099F0EFB6F8948AA1F8019081891710F47A
:1013E0008AA18083F801408150E0BE016D5D7F4F8E
:1013F000C6010E944F1AEFBEC15ADF4F18828F2DCF
:10140000DF91CF911F910F91FF90EF90DF90CF90E0
:101410000895EF92FF920F931F93CF93DF93CDB771
:10142000DEB72A970FB6F894DEBF0FBECDBF8C0192
:101430000E941908E82E81110FC0E12C8E2D2A96EA
:101440000FB6F894DEBF0FBECDBFDF91CF911F91D5
:101450000F91FF90EF900895D8015D968C918823AD
:1014600009F4C2C0813009F4C2C0823009F4C2C09C
:10147000833009F4C2C044E0F42E8730F1F6F8015D
:10148000818D928DDC01ED91FC910488F589E02D30
:101490006F2D099560E1C8010E94E205F80180A363
:1014A00081508E3F50F660E0858D0E940204D80185
:1014B0005E968C915E978F3F59F48091090284303B
:1014C00008F0BBCF91E0980F909309025E968C9341
:1014D000F801868DE82FF0E0EE0FFF1FE65FFD4F6D
:1014E0001183008360E178E0882349F067E078E0C9
:1014F000813029F0823009F0A0CF6EEF77E08F2D98
:101500000E945802C8010E9465064FE86CE3C801BA
:101510000E948B0540E36FE6C8010E948B0545E5FC
:101520006AE5C8010E948B0540E76CE5C8010E948E
:101530008B058DE2898784ED8A876EE2C8010E945F
:10154000E205F82E22E0AE01475F5F4F6FE2C8016F
:101550000E9436054F2D477C48686EE2C8010E9404
:101560008B0548E050E066E571E0CE0101960E94EF
:101570002C1825E0AE014F5F5F4F62E0C8010E946A
:10158000360522E0AE014A5F5F4F69E1C8010E9463
:101590003605488567E3C8010E948B0540E06CE290
:1015A000C8010E948B0544E06DE2C8010E948B05D2
:1015B0004CE667E0C8010E948B0540E868E0C8017E
:1015C0000E948B0540E069E0C8010E948B05C801BC
:1015D0000E940E068DE0D80191968C934FE961E14F
:1015E000C8010E948B052ACF32E0F32E48CF23E0BA
:1015F000F22E45CFFF24F39442CFF12C40CF0F932E
:101600001F93CF93FC018281938140E054E264EF09
:1016100070E084309105C1F040E052E16AE770E08B
:101620008330910589F040E059E06DE370E082304D
:10163000910551F040E452E46FE070E0019721F42D
:1016400040E854E86EE170E0A481B581868197811D
:10165000009709F466C08130910509F45EC08230BC
:10166000910509F45CC0039709F05BC08CE000E0D1
:1016700019E02DE330E090E040175107620773074F
:1016800040F436952795179507959F5F9630A1F7FB
:1016900097E021E0292730E5119709F430E72695F6
:1016A000282B232B2087909591709187CFB7F894A2
:1016B00080910602811127C0EBECF1E08491EAEE03
:1016C000F1E09491E82FF0E0EE0FFF1FE256FE4F9D
:1016D000A591B491EC91E92321F461E081E10E94AC
:1016E000D40361E081E10E9402048CB580618CBD6D
:1016F0008CB580648CBD61E08FE00E94020461E0E3
:1017000080E10E940204809106028F5F80930602AE
:10171000CFBFCF911F910F91089584E0A8CF88E0AB
:10172000A6CF80E0A4CF8F929F92AF92BF92CF922C
:10173000DF92EF92FF92CF93DF93FC012789308DE8
:10174000232BB9F1EC010E940F054B015C0189E0EC
:10175000C82ED12CE12CF12CE881F9810488F5897F
:10176000E02DCE010995882321F10E940F05AB01E0
:10177000BC01481959096A097B098F89988DB0E025
:10178000A0E084179507A607B707F8F00E94D417C2
:10179000A70196010E9441189B01AC012F5F3F4FAA
:1017A0004F4F5F4FA4E6B0E00E9460180E945804BB
:1017B000D3CF81E0DF91CF91FF90EF90DF90CF907A
:1017C000BF90AF909F908F90089580E0F3CF1F92CD
:1017D0000F920FB60F9211242F933F934F935F9365
:1017E0006F937F938F939F93AF93BF93CF93EF9319
:1017F000FF93C091E1008091E100837F8093E1003D
:10180000C3FF0FC01092E90081E08093EB001092BB
:10181000EC0082E38093ED0010928D0288E08093CB
:10182000F000C2FF14C00E944D0280911E02882366
:1018300029F080911E02815080931E0280918C02BB
:10184000882329F080918C02815080938C02C4FF00
:1018500023C08091E2008E7E81608093E2008091BF
:10186000E1008F7E8093E10080911F028E7E806177
:1018700080931F02FF91EF91CF91BF91AF919F9104
:101880008F917F916F915F914F913F912F910F9029
:101890000FBE0F901F901895C0FFECCF8091E20013
:1018A0008E7E80618093E2008091E1008E7E809345
:1018B000E10080911F028E7E8160DACF1F920F922D
:1018C0000FB60F921124CF92DF92EF92FF920F93F7
:1018D0001F932F933F934F935F936F937F938F93B8
:1018E0009F93AF93BF93EF93FF93CF93DF93CDB7C6
:1018F000DEB76C97DEBFCDBF1092E9008091E800A3
:1019000083FF2FC089E0FE017596EE2EDF2E8150F9
:1019100029F09091F10090833196F9CF84E680937D
:101920008C0282EF8093E8008D8987FF39C0909107
:10193000E80090FFFCCF982F907609F033C19E8984
:101940004F89588D2F89F88C911131C0803861F5FD
:10195000809120028093F1001092F1008EEF80932D
:10196000E8006C960FB6F894DEBF0FBECDBFDF91D6
:10197000CF91FF91EF91BF91AF919F918F917F9107
:101980006F915F914F913F912F911F910F91FF9018
:10199000EF90DF90CF900F900FBE0F901F90189593
:1019A0009EEF9093E800C7CF1092F100D5CF913011
:1019B00059F48111D3CF4130510581F68091200235
:1019C0008D7F80932002CACF933049F48111C6CF16
:1019D0004130510519F6809120028260F2CF953096
:1019E00041F48091E80080FFFCCF20682093E30061
:1019F000B5CF963009F0A8C00B8D1C8D22E0109257
:101A0000E90010921C0210921B02F2122EC01092DA
:101A10001A02109219020E9407031F8299E099830B
:101A2000FA8291E09E8390EA98879AEF99872091B5
:101A30001B0230911C02275F3F4F3C832B838D8319
:101A40001092E90010921C0210921B0210931A02CD
:101A50000093190249E050E0BE016F5F7F4F80E0C4
:101A60000E94E1020E94070379CF10931A020093AB
:101A700019020E949D02DC0112960D911C91011524
:101A8000110509F457C1D801ED91FC910480F5814D
:101A9000E02D6E2D7D2DC8010995009709F045C1F7
:101AA000F80100851185EBCFF3E0FF120EC08F899E
:101AB000882309F440C0823061F440E86CE088E794
:101AC00092E00E94AA11811149CF81E28093EB003C
:101AD00048CF813029F440E868E08FE692E0F1CF0A
:101AE000833099F70E949D02DC011296ED90FC90E4
:101AF0008E010F5F1F4F6801E114F10479F0D701E7
:101B0000ED91FC910680F781E02DB801C7010995A0
:101B1000080F111DF701E084F184EECFD8011C926B
:101B2000F60101900020E9F73197BF016C197D099A
:101B300040E0C601C6CF69E572E0FB01449150E088
:101B400080E80E94E1020ACF973009F4BECF9830B6
:101B500021F481E08093F10001CF993009F0FECEAD
:101B6000837009F0B2CFECE4F1E081E031E096E37C
:101B70002191222371F08093E9003093EB00DF0183
:101B800011972C912093EC009093ED008F5F87309C
:101B900079F78EE78093EA001092EA008F898093AC
:101BA0008D02DCCE8B8D9C8D1092E90010921C0270
:101BB00010921B0290931A0280931902898D811151
:101BC0009AC08E899D89913A49F4813209F07DCF7E
:101BD00047E050E064E071E080E0B3CF913209F07B
:101BE00074CF833269F48F89988DB0E0A0E0809340
:101BF000000190930101A0930201B0930301AECEC6
:101C00008032A9F48091E80082FFFCCF88E0E4E014
:101C1000F1E0815029F09091F10090833196F9CF55
:101C200084E680938C028BEF8093E80097CE82321B
:101C300009F094CE8F8980930B01EEEFFFE7859139
:101C400094918B3F9C4D51F1E0E0F8E080910401CC
:101C500090910501A0910601B0910701803B94404D
:101C6000A105B105F1F480910B0180FD1AC0EE3F92
:101C70008AE0F80789F587E797E791838083809169
:101C8000600080931D0288E19BE00FB6F894A89550
:101C9000809360000FBE9093600060CEEEEFFAE09C
:101CA000D5CF808191818737974709F057CEA89586
:101CB0008091600088618093600080911D02809314
:101CC0006000EE3F2AE0F20789F08091FE0A9091D1
:101CD000FF0A9183808342CE808191818737980764
:101CE00051F29093FF0A8093FE0AC5CF1092FF0A2B
:101CF0001092FE0A33CE0E949D02DC0112960D91D5
:101D00001C910115110509F4E0CED801ED91FC916B
:101D10000190F081E02D6E2D7D2DC8010995811176
:101D20001DCEF80100851185ECCF181619060CF4AC
:101D300015CECBCEF1E0FF12B7CE6DE572E0FDCE51
:101D40001F920F920FB60F9211242F933F938F93F0
:101D50009F93AF93BF938091110290911202A09133
:101D60001302B09114023091100226E0230F2D3798
:101D700058F50296A11DB11D209310028093110207
:101D800090931202A0931302B09314028091150253
:101D900090911602A0911702B09118020196A11D10
:101DA000B11D8093150290931602A0931702B09371
:101DB0001802BF91AF919F918F913F912F910F90FA
:101DC0000FBE0F901F90189529E8230F0396A11DB1
:101DD000B11DD2CF1F920F920FB60F9211242F93E5
:101DE0003F934F935F936F937F938F939F93AF93A3
:101DF000BF93EF93FF93E0911701F09118010995BC
:101E0000FF91EF91BF91AF919F918F917F916F91D2
:101E10005F914F913F912F910F900FBE0F901F90A8
:101E200018951F920F920FB60F9211242F933F9384
:101E30004F935F936F937F938F939F93AF93BF93D2
:101E4000EF93FF93E0911501F09116010995FF9131
:101E5000EF91BF91AF919F918F917F916F915F9122
:101E60004F913F912F910F900FBE0F901F9018959B
:101E70001F920F920FB60F9211242F933F934F93FF
:101E80005F936F937F938F939F93AF93BF93EF93E2
:101E9000FF93E0911301F09114010995FF91EF91E7
:101EA000BF91AF919F918F917F916F915F914F9172
:101EB0003F912F910F900FBE0F901F9018951F927A
:101EC0000F920FB60F9211242F933F934F935F936E
:101ED0006F937F938F939F93AF93BF93EF93FF93F2
:101EE000E0911101F09112010995FF91EF91BF91DD
:101EF000AF919F918F917F916F915F914F913F91A2
:101F00002F910F900FBE0F901F9018951F920F9258
:101F10000FB60F9211242F933F934F935F936F93BC
:101F20007F938F939F93AF93BF93EF93FF93E09132
:101F30000F01F09110010995FF91EF91BF91AF91C1
:101F40009F918F917F916F915F914F913F912F91D1
:101F50000F900FBE0F901F9018951F920F920FB603
:101F60000F9211242F933F934F935F936F937F931F
:101F70008F939F93AF93BF93CF93DF93EF93FF9391
:101F80008091020090910300049709F0DEC0209137
:101F90001B0030E0F901E850FE4F8491F901E7524F
:101FA000FE4FD491F901E654FE4FC491CC2379F051
:101FB00081110E948803EC2FF0E0EE0FFF1FE85420
:101FC000FF4FA591B491EC91ED2381E009F480E0FD
:101FD000817020911E00982F9227821719F083B1EB
:101FE0008F5F83B982B18917F1F184B12DE180351A
:101FF00008F42BE084B1820F84B992B984B1803A9D
:1020000008F46EC086B197B19695879597B986B951
:1020100083B1853028F086B197B1986097B986B9B9
:1020200084B1805A84B913B885B1882309F482C079
:1020300088B18F5F88B98C3008F452C086B197B1EF
:10204000982F9F73892F86958695887028E0280F92
:10205000281769F0E82FF0E0E55CFE4F3081931718
:1020600039F08F5FF5CF84B18C5E84B9C7CF80E043
:1020700090E1899F9001112486B197B136E0969541
:1020800087953A95E1F7482F95958795959587958A
:10209000887098E0980F981749F0E82FF0E0E55C19
:1020A000FE4F5081451719F08F5FF5CF80E0822BEE
:1020B00090916D00911127C080936C0090916C00FD
:1020C000973020F090916C009434E8F015B880912E
:1020D00010009091110001969093110080931000D0
:1020E000FF91EF91DF91CF91BF91AF919F918F9130
:1020F0007F916F915F914F913F912F910F900FBE04
:102100000F901F901895E0916D0091E09E0F9093B5
:102110006D00F0E081A790916D0080916C009817A0
:1021200038F015B881E080B990E080E00E941E058B
:1021300018B8D6CF86B197B188339B4089F681E035
:1021400085B918B810926D00CBCF809102009091A4
:102150000300039729F68091700091E0980F909307
:102160007000811113C0E0916E008091FF00E817AC
:10217000A8F090E080E00E941E05809114009091EC
:1021800015000196909315008093140080917000C3
:10219000883008F4A5CF10927000A2CFF0E0EF587D
:1021A000FF4F608170E080916F0091E0980F9093F5
:1021B0006F0002C0759567958A95E2F7617080910E
:1021C0001C000E94D40380916F008630F8F21092B8
:1021D0006F0080916E008F5F80936E00D7CF1F924B
:1021E0000F920FB60F9211242F933F938F939F93CB
:1021F000AF93BF93CF93DF93EF93FF939091EC0254
:10220000E091E402F091E5020688F789E02D8285ED
:10221000981317C01092EC028091ED02882309F404
:1022200043C02091E4023091E5028091E002909158
:10223000E10228173907C1F58091ED0281508093A2
:10224000ED02C091E402D091E502A091EC02E09190
:10225000EC028E899F89A695A695A695A80FB92F01
:10226000B11DE770F0E0ED5CFE4F8C919081892309
:1022700009F46BC083E78093D10089E38093D00099
:102280008091EC028F5F8093EC02FF91EF91DF91E0
:10229000CF91BF91AF919F918F913F912F910F90CF
:1022A0000FBE0F901F9018958091E8029091E9025F
:1022B000892B71F18091E8029091E9029093E502F7
:1022C0008093E4021092E9021092E802E091E402A5
:1022D000F091E502868997899093EB028093EA0258
:1022E000A091E402B091E502E091E402F091E502F0
:1022F00058968D919C91978B868BE091E402F0919A
:10230000E5028091EA029091EB02918F808F99CF44
:102310002091E4023091E5028091E6029091E7027B
:102320002817390741F48091E0029091E1029093DF
:10233000E5028093E4028091E4029091E5024A96DE
:102340009093E5028093E4027CCF87EC8093D100E8
:1023500083E694CFEF92FF920F931F93CF93DF9377
:10236000F82E192FE62E042F81E0860F880F0E9489
:10237000B30283E00E94B302CF2DD12FEC0EFD2ECD
:10238000F11CCE15DF05B9F007FF13C0FE018491E3
:102390000E94B302182F80E00E94B302812321968D
:1023A0008111EFCFDF91CF911F910F91FF90EF90AF
:1023B00008958881EDCF81E0F5CFEF92FF920F93E2
:1023C0001F93CF93DF93EEE8F2E01382128288EE40
:1023D00093E0A0E0B0E084839583A683B78386E58D
:1023E00091E0918380838FEF9FEF95878487ABEF98
:1023F000B3E013961C921E92129715961C921E9291
:10240000149717961C921E92169788E691E01196E3
:102410009C938E9380E518968C93189781E019967B
:102420008C931997E5E0F4E0138212828FEF848396
:102430008287838714861586118A108A138A128AE6
:10244000158A148A108E178AB28FA18F98E0938F05
:1024500022E831E03183208397E0958F94E0978FD5
:10246000868FA0EFB2E01196FC93EE938AEC129661
:102470008C93129713961D921D921D921C92169783
:1024800017961C92179788EC90E019969C938E9360
:10249000189783E01A968C93EBEFF2E080E091E0DE
:1024A000DF019C011D9221503040E1F70EED12E05A
:1024B00081E090E0D80111969C938E936AE170E0E0
:1024C00082E090E00E940919EC01F8019383828375
:1024D0009F8B8E8B0B96998F888F0F9699AB88ABBD
:1024E0000B969BAB8AAB62E070E082E090E00E94CA
:1024F00009197C01D80115969C938E93149762E07C
:1025000070E082E090E00E940919F801918B808BC5
:10251000D783C683D701CD93DC93D187C087138639
:10252000128616861786DF91CF911F910F91FF902B
:10253000EF900895CF93DF93CDB7DEB7E2970FB654
:10254000F894DEBF0FBECDBF789484B5826084BDA1
:1025500084B5816084BD85B5826085BD85B58160A7
:1025600085BD80916E00816080936E001092810025
:1025700080918100826080938100809181008160E0
:1025800080938100809180008160809380008091A1
:10259000910082608093910080919100816080938E
:1025A0009100809190008160809390008091C100A3
:1025B00084608093C1008091C10082608093C100DB
:1025C0008091C10081608093C1008091C3008160CF
:1025D0008093C3008091C00082608093C00080918E
:1025E000C20081608093C20080917A0084608093F1
:1025F0007A0080917A00826080937A0080917A00DC
:102600008E7F80937A0080917A00806880937A0030
:1026100010928D021092200210921F028091D7001A
:1026200081608093D70080EA8093D80089B58F7E3F
:1026300089BD89B5826089BD09B400FEFDCF61E026
:1026400070E080E090E00E9458048091D8008F7C78
:1026500080618093D8008091E000807F8093E000CB
:102660008091E1008E7E8093E1008DE08093E20016
:102670008EED92E090934302809342026DEC71E004
:1026800081E292E00E945F1A8FEF9FEF90939B028E
:1026900080939A020E944D028091F0029091F10283
:1026A000DC01ED91FC910190F081E02D09958823EA
:1026B000E1F01091F2028091F0029091F102DC01C0
:1026C000ED91FC910688F789E02D612F09958091A5
:1026D000F0029091F102DC01ED91FC91028CF38DFE
:1026E000E02D612F09951093F20249ED67E085E036
:1026F00094E00E948B0540E068E085E094E00E9451
:102700008B0540E069E085E094E00E948B0584E160
:10271000809326044FE761E185E094E00E948B05F9
:1027200080E1E3E2F1E0DE01119601900D928A95DD
:10273000E1F720E1AE014F5F5F4F6EE385E094E08B
:102740000E9436056DE385E094E00E94E205482F83
:1027500041606DE385E094E00E948B0582E390E0A8
:102760009093F9028093F80261E089E00E940204EC
:1027700061E08AE00E940204269A8091C3008E7F65
:102780008093C3008091C3008D7F8093C3008091AC
:10279000C1008E7F8093C1008091C1008D7F8093A6
:1027A000C1008091C10084608093C1008091C1000C
:1027B000877F8093C1008091C00081608093C000BA
:1027C0008091C00080618093C0008091C0008F7DA7
:1027D0008093C00083E78093D10089E38093D00089
:1027E00010E000E022E030E04CE051E061E070E019
:1027F0008EED92E00E946E01809172008062809363
:10280000720061E08DE00E94020461E08DE00E94B0
:10281000D4034E01B9E18B0E911C2E01EBE14E0E5B
:10282000511C1E01FDE12F0E311C9E01215E3F4F08
:102830003BA32AA37E0131E1E30EF11CAE014B5F05
:102840005F4F5DA34CA356E4652E52E0752ECE017A
:1028500004969FA38EA3DE011396B9A7A8A7FE0135
:102860003296FBA7EAA79E01295E3F4F3DA72CA702
:102870008091F0029091F102DC01ED91FC910280D7
:10288000F381E02D0995882309F417C18CE389A30E
:102890008091F0029091F102DC01ED91FC910480B5
:1028A000F581E02DAE014F5D5F4F64E472E0099564
:1028B000882309F402C18091F0029091F102DC01B9
:1028C000ED91FC9104A0F5A1E02D099580914502C0
:1028D000823609F44EC294F48D3409F4AAC28A35C2
:1028E00009F403C1803209F0E8C08DEC91E00E9448
:1028F0004A098BEC91E00E944A09DFC0843709F451
:1029000049C0873709F4F1C1863609F0D6C0C090B6
:102910004202D09043029F928F925F924F923F92D9
:102920002F928DEB91E09F938F937F926F920E94F5
:10293000661AAC010FB6F894DEBF0FBECDBF02978A
:102940000CF4BBC08D8D9E8D20E08038910524F065
:10295000292F206C298B21E0F701E20FF11D8083E4
:102960009B8DE2E0E20FA1E0A20FAE0DBF2DB11DE5
:102970004230510509F0AEC09F7390689C932E2F92
:1029800030E004E010E0A70170E060E0C6010E94C2
:102990006E0193C0C0904202D09043029F928F92EA
:1029A0005F924F923F922F92BBA1BF93EAA1EF9308
:1029B0002AEB31E03F932F937F926F920E94661A29
:1029C0000FB6F894DEBF0FBECDBF049709F075C0F7
:1029D0006F8D78A1161617060CF06FC0F601808176
:1029E0009181861797070CF468C08D8D9E8DE0E06D
:1029F0008038910524F0292F206C298BE1E0D70144
:102A0000AE0FB11D8C93A1E0AE0FAE0DBF2DB11D69
:102A10008FE38C934B8D5C8D23E02E0FEE5FEE0DDC
:102A2000FF2DF11D57FD51C0898D8795882787950A
:102A300091E0141615060CF090E0890F840F808346
:102A400030E010E000E0A701C6010E946E0186ECB4
:102A500091E00E949B098F8D98A10E949D0989ECAD
:102A600091E00E949B098B8D9C8D0E949D0989ECB1
:102A700091E00E949B09898D9A8D0E949D0980EDAD
:102A800091E00E944A098BEC91E00E944A09298D4D
:102A90003A8D8B8D9C8D2130310519F09195819562
:102AA0009109D6015096ED91FC912F8D38A1220FFE
:102AB000331FE20FF31F9183808380E090E0892B26
:102AC00009F4D6CE0E940000BECE81E080831C8E29
:102AD0001B8EB6CF91709E6D9C93EE0DFF2DF11D58
:102AE000898D8083E3E0E20F4ACFFF92EF929F92BD
:102AF0008F925F924F928DEB91E09F938F937F9295
:102B00006F920E94661A0FB6F894DEBF0FBECDBF5B
:102B10008130910509F4C8C0E4F5019671F6009181
:102B20004002109141020115110509F457C08EEDC4
:102B300091E00E949B09F801838194810E949D0984
:102B400089EC91E00E949B09D80115966C9170E088
:102B500090E080E04AE00E94570989EC91E00E94F1
:102B60009B09F801668170E090E080E04AE00E94F5
:102B70005709D80112968C918111B4C08EEC91E066
:102B80000E949B09F801078110850115110579F64E
:102B900094CF8230910529F1039709F08ECFC9882F
:102BA000DA88B98DBAABEB8DFC8DFFA7EEA7A090AC
:102BB0004002B09041028501A114B10459F569E0C9
:102BC00070E081E090E00E9409198C01909341022D
:102BD000809340020115110509F03FC086ED91E098
:102BE00088C18B8D9C8D009140021091410201158E
:102BF0001105A1F3D80113962D913C9114978217DA
:102C0000930709F452C117960D911C91F0CF82EDF4
:102C100091E06FC1D80113968D919C911497EEA508
:102C2000FFA5E817F907C9F017960D911C9101153A
:102C3000110581F7D50117968D919C91009759F454
:102C400069E070E081E090E00E9409198C01F501D3
:102C500090878783BFCF5C01EDCFEEA5FFA5D8019C
:102C60001496FC93EE931397FAA91596FC93159777
:102C70001696CC9280E0C1FE06C0C6019595879558
:102C8000959587958170D80112968C936C2D617003
:102C900068278AA90E94D40361E0F80185810E9417
:102CA00002048AED91E025C14B8D5C8D209140029C
:102CB00030914102F901309709F490CF638174811A
:102CC000878190854617570709F416C1F9ABE8AB21
:102CD000FC01F1CFA8A9B9A917968C93179718965C
:102CE0009C9312C182ED91E04BCFC0904202D090F4
:102CF00043029F928F925F924F923F922F928DEB61
:102D000091E09F938F937F926F920E94661A0FB605
:102D1000F894DEBF0FBECDBF039709F0CECE8B8DEA
:102D20009C8D01979C8F8B8F4D8D5E8D20E0403860
:102D3000510524F0252F206C298B21E0F701E20FAB
:102D4000F11D4083E1E0E20FEE0DFF2DF11D9370C8
:102D500094519083E2E0E20FEE0DFF2DF11D808390
:102D6000E3E0E20FEE0DFF2DF11D898D80832C5FD6
:102D700007CEC0904202D09043029F928F925F9202
:102D80004F923F922F923BA13F934AA14F938AEBE0
:102D900091E09F938F937F926F920E94661A0FB675
:102DA000F894DEBF0FBECDBF049709F086CE0D8D1F
:102DB0001E8D015011091E8F0D8F898D9A8D62E035
:102DC00070E00E94DB18FC019A8F898F8B8D9C8D9F
:102DD00068E070E00E94DB188B8F9C8F4F8D58A1AC
:102DE00020E04038510524F0952F906C998B21E01C
:102DF000D701A20FB11D4C93A1E0A20FAE0DBF2DC4
:102E0000B11D912F937098519C93A2E0A20FAE0D2B
:102E1000BF2DB11D0C93A3E0A20FAE0DBF2DB11DB0
:102E2000AF01425E5F4F440F440F440F840F8C93F9
:102E30009ECFC0904202D0904302FDA1FF932CA1EF
:102E40002F933FA13F934EA14F9359A55F9388A520
:102E50008F939BA59F93AAA5AF93E1E0F0E0EC0FC1
:102E6000FD1FFF93EF93FDA5FF932CA52F9381EEFC
:102E700091E09F938F937F926F920E94661A9C01BC
:102E80002150310903970FB6F894DEBF0FBECDBFB6
:102E9000049718F083EF91E02CC06F89788D10E0D3
:102EA00000E0AE014F5F5F4F71CD81E0298D3A8D1B
:102EB000121613060CF080E0D80112968C9312972C
:102EC00016966C9116976170682715968C910E94E2
:102ED000D4038EED91E00E949B09F80183819481D7
:102EE0000E949D09D80112968C91811190CE8EEC92
:102EF00091E00E949B09E1CD2E173F0709F0EACE31
:102F00008093400290934102CF010E94C119C9CE23
:102F10008F929F92AF92BF92CF92DF92EF92FF92E9
:102F2000CF93DF93EC01688179818A819B81611560
:102F300071058105910521F464E279ED8BE597E057
:102F40002DE133EF41E050E00E94411849015A0160
:102F50009B01AC01A7EAB1E40E9460186B017C01FF
:102F6000ACEEB4EFA50194010E946E18C60ED71EF8
:102F7000E81EF91EF7FE06C081E0C81AD108E10874
:102F800080E8F80AC882D982EA82FB82C701B601CA
:102F90009F77DF91CF91FF90EF90DF90CF90BF9020
:102FA000AF909F908F9008958F929F92AF92BF9213
:102FB000CF92DF92EF92FF926091190170911A0106
:102FC00080911B0190911C0161157105810591058E
:102FD00021F464E279ED8BE597E02DE133EF41E0F8
:102FE00050E00E94411849015A019B01AC01A7EA37
:102FF000B1E40E9460186B017C01ACEEB4EFA50156
:1030000094010E946E18C60ED71EE81EF91EF7FE28
:1030100006C081E0C81AD108E10880E8F80AC09229
:103020001901D0921A01E0921B01F0921C01C70114
:10303000B6019F77FF90EF90DF90CF90BF90AF9059
:103040009F908F9008956093190170931A01809357
:103050001B0190931C010895FB01DC0102C0059047
:103060000D9241505040D8F7089591110C943E189C
:10307000803219F089508550C8F70895992788271C
:103080000895052E97FB1EF400940E94581857FDD2
:1030900007D00E94AA1807FC03D04EF40C945818CD
:1030A00050954095309521953F4F4F4F5F4F089574
:1030B00090958095709561957F4F8F4F9F4F0895A4
:1030C0000E94CC18A59F900DB49F900DA49F800DD9
:1030D000911D11240895B7FF0C9460180E94601888
:1030E000821B930B08952F923F924F925F926F92A3
:1030F0007F928F929F92AF92BF92CF92DF92EF9288
:10310000FF920F931F93CF93DF93CDB7DEB7CA1B08
:10311000DB0B0FB6F894DEBF0FBECDBF09942A8833
:10312000398848885F846E847D848C849B84AA84DB
:10313000B984C884DF80EE80FD800C811B81AA8168
:10314000B981CE0FD11D0FB6F894DEBF0FBECDBF33
:10315000ED010895A1E21A2EAA1BBB1BFD010DC0B3
:10316000AA1FBB1FEE1FFF1FA217B307E407F50737
:1031700020F0A21BB30BE40BF50B661F771F881F13
:10318000991F1A9469F760957095809590959B01A9
:10319000AC01BD01CF010895A29FB001B39FC00152
:1031A000A39F700D811D1124911DB29F700D811D73
:1031B0001124911D089597FB072E16F4009407D053
:1031C00077FD09D00E94F51807FC05D03EF49095D4
:1031D00081959F4F0895709561957F4F0895EE0FEB
:1031E000FF1F0590F491E02D0994AA1BBB1B51E130
:1031F00007C0AA1FBB1FA617B70710F0A61BB70B67
:10320000881F991F5A95A9F780959095BC01CD010B
:1032100008950F931F93CF93DF93869F8001879F1D
:10322000100D969F100D1124C8010E942519EC0164
:10323000009729F0A80170E060E00E94581ACE01C2
:10324000DF91CF911F910F9108950F931F93CF930B
:10325000DF938230910510F482E090E0E0916B04FE
:10326000F0916C0430E020E0B0E0A0E0309799F4F9
:103270002115310509F44AC0281B390B24303105CA
:10328000D8F58A819B816115710589F1FB019383D2
:103290008283FE0111C04081518102811381481750
:1032A0005907E0F04817590799F4109761F0129602
:1032B0000C93129713961C933296CF01DF91CF9106
:1032C0001F910F91089500936B0410936C04F4CF39
:1032D0002115310551F04217530738F0A901DB01E0
:1032E0009A01BD01DF01F801C1CFEF01F9CF909341
:1032F0006C0480936B04CDCFFE01E20FF31F81932A
:1033000091932250310939832883D7CF20916904C2
:1033100030916A04232B41F420911F013091200148
:1033200030936A042093690420911D0130911E019D
:103330002115310541F42DB73EB74091210150913F
:103340002201241B350BE0916904F0916A04E21715
:10335000F307A0F42E1B3F0B2817390778F0AC01B8
:103360004E5F5F4F2417350748F04E0F5F1F509395
:103370006A0440936904819391939FCFF0E0E0E069
:103380009CCFCF93DF930097E9F0FC013297138233
:103390001282A0916B04B0916C04ED0130E020E04A
:1033A0001097A1F420813181820F931F209169042D
:1033B00030916A042817390709F061C0F0936A0454
:1033C000E0936904DF91CF910895EA01CE17DF07FA
:1033D000E8F54A815B819E0141155105B1F7E9018C
:1033E000FB83EA8349915991C40FD51FEC17FD0760
:1033F00061F4808191810296840F951FE901998380
:103400008883828193819B838A83F0E0E0E0129637
:103410008D919C9113970097B9F52D913C9111973F
:10342000CD010296820F931F2091690430916A04A6
:103430002817390739F6309751F510926C0410921D
:103440006B04B0936A04A0936904BCCFD383C28396
:1034500040815181840F951FC817D90761F44E5FD1
:103460005F4F88819981480F591F518340838A811A
:103470009B81938382832115310509F0B0CFF093AE
:103480006C04E0936B049ECFFD01DC01C0CF13827E
:103490001282D7CF81E090E0F8940C946E1DFB016E
:1034A000DC0102C001900D9241505040D8F70895C0
:1034B000DC0101C06D9341505040E0F70895FB01DD
:1034C000DC0101900D920020E1F70895AEE0B0E03C
:1034D000ECE6FAE10C94831885E08C838B899C8957
:1034E0009A838983AE01495E5F4F6D897E89CE01E3
:1034F00001960E940A1C2E96E2E00C949F1820FD73
:1035000009C0FC0123FD05C022FF02C07383628352
:1035100051834083089544FD17C046FD1DC0DB0163
:10352000FC01AA0FBB1FEE1FFF1F1094D1F76A0FFB
:103530007B1F8E1F9F1F660F771F881F991F620FAB
:10354000711D811D911D089533E0660F771F881F3F
:10355000991F3150D1F7F3CF34E0F7CF0F931F937A
:10356000CF93DF938C01C8010E941A1DEC0197FDD7
:1035700008C00E943518892BB1F7B801CE010E940E
:10358000561DCE01DF91CF911F910F9108958F921B
:103590009F92AF92BF92EF92FF920F931F93CF93A0
:1035A000DF938C01D62F7A01B22E0E941A1D9C0146
:1035B00033272B32310529F02D323105A9F46894D7
:1035C000B7F8D15061F480E0DF91CF911F910F9156
:1035D000FF90EF90BF90AF909F908F900895C8019B
:1035E0000E941A1D97FDEFCFCB2DCD7F2B2D207381
:1035F000F9F48033E9F4AA24AA94AD0E89F0C80145
:103600000E941A1D97FD0CC0282F2F7D283561F4CC
:10361000C264D25029F0C8010E941A1D97FF08C049
:10362000812C912C54011BC0B6FE2BC0C260DA2D38
:10363000812C912C540120ED280F283028F1C4FD55
:1036400009C02A3008F1C6FF05C02F7D3FEE320FBA
:103650003630C8F0B8010E94561DC1FFB4CFC7FF75
:1036600008C0B094A09490948094811C911CA11CDB
:10367000B11C2C2FB501A401C7010E947F1A81E063
:10368000A3CFC261D4CF27504C2FC501B4010E94F3
:103690008B1A4B015C01C260D15009F3C8010E9432
:1036A0001A1D97FFC8CFD9CFA0E2B0E0EAE5FBE151
:1036B0000C9478185C01962E7A01CE0101966C016B
:1036C00080E2F60111928A95E9F7F501B38189014B
:1036D00030E020E0712C812CA0E041E050E0F801C6
:1036E000B3FD8591B3FF8191982F8F01811107C0A0
:1036F00010E000E0C801A096EDE00C9494188E351F
:1037000019F42115310541F1A21713064CF48D353A
:1037100049F18D3229F4811006C0882483941DC09C
:10372000882009F464C0E92FE695E695E695EC0D4E
:10373000FD2DF11D892F8770BA0101C0660F8A9592
:10374000EAF78081682B6083791651F0971510F4A1
:103750009F5FE9CF9150E7CFA1E02F5F3F4FBFCFF1
:10376000812CFBCF882019F08E8180628E83AA2362
:1037700059F0F6019E012F5D3F4F80818095808337
:103780003196E217F307C9F788248394C5010E9494
:103790001A1D97FD16C0E82FE695E695E695EC0D07
:1037A000FD2DF11D208130E0AC014770552702C08E
:1037B000359527954A95E2F720FD06C0B5010E9490
:1037C000561D882069F094CFE114F10429F0F70127
:1037D0008083C70101967C019A94812C9110D6CFE9
:1037E000E114F10409F486CFF701108283CFE82FAA
:1037F000E695E695E695EC0DFD2DF11D982F977059
:10380000BA0101C0660F9A95EAF79081692B60832F
:10381000782EA3CFB0E0A0E0E0E1FCE10C947618B4
:103820006C01EB015A01FC0117821682512CF60142
:10383000E380FE01E3FC8591E3FE8191182FEF0107
:103840008823E9F090E00E943518892B21F0C60109
:103850000E94AE1AECCF153241F4FE01E3FC159143
:10386000E3FE1191EF01153269F4C6010E941A1DA1
:1038700097FD8EC01817D9F2B6010E94561D852DEE
:1038800090E08AC000E01A3231F4E3FC1591E3FEC7
:103890001191EF0101E0F12C20ED210F2A3048F1C8
:1038A00001FF37C0FF2059F31836B1F11C3609F477
:1038B0003DC0112321F3612F70E08CEA90E00E945B
:1038C0000F1D892BE1F2912C812C00FD06C0F50122
:1038D00080809180C50102965C011E3679F5F60163
:1038E0004681578170E060E0202FC4010E947F1A5A
:1038F0009ECF02606F2D70E090E080E040E20E9479
:103900008B1AF62EFE01E3FC1591E3FE1191EF01F7
:10391000C3CFFF24FA94C8CFFE01E3FC1591E3FE68
:103920001191EF01183609F0C4CF08600460FE0160
:10393000E3FC1591E3FE1191EF01BBCF1336C1F407
:1039400001FD02C0FF24F394C6010E941A1D97FDD9
:103950001FC08114910429F0F4018083C4010196F1
:103960004C01FA94F110F0CF00FD61CF53945FCF7A
:103970001B35B9F49E01A4016F2DC6010E94541B92
:10398000EC01892B89F7F6018381807309F477CFE5
:103990008FEF9FEF511073CFCDB7DEB7EFE00C94F0
:1039A0009218C6010E94AE1A97FDF2CF1F36A9F1F8
:1039B00030F4143641F0193639F0006405C013377D
:1039C000B9F01537D1F70062202FA4016F2DC60181
:1039D0000E94C71A8111C8CFD6CF8114910429F053
:1039E000F4016082C40101964C01FA94FF2071F049
:1039F000C6010E941A1D3C0197FD08C00E9435189F
:103A0000892B59F3B601C3010E94561D81149104FC
:103A100009F4AACFF4011082A7CF0061D5CFFC0131
:103A20000590061621F00020D9F7C00108953197BE
:103A3000CF010895CF93DF93EC012B8120FF1AC0B3
:103A400026FF0CC02F7B2B838E819F8101969F8345
:103A50008E838A8190E0DF91CF91089522FF18C074
:103A6000E881F9818081082E000C990B009729F4D8
:103A700020622B838FEF9FEFEECF3196F983E8839F
:103A80002E813F812F5F3F4F3F832E839927E3CFC6
:103A9000EA85FB85099597FFF3CF2B81019621F0ED
:103AA00080E2822B8B83E6CF80E1FBCFFB01238179
:103AB00020FF11C026FD0FC08F3F980771F0828351
:103AC0002F7D20642383268137812150310937835C
:103AD0002683992708958FEF9FEF0895F894FFCFDD
:103AE000FFFFFFFF00E1000000000000FF00001BDF
:103AF000051B051B051B051B050100000000006DD3
:103B00000480000A0B0A0D0C0A0F0E0D0E0A0D0B95
:103B10000E0E0F80402010080402010D0E13151622
:103B2000191A1C232526292A2C323400C180810031
:103B300000000000000038038B044E03B1026E0346
:103B400052035E03000000007E087A087608FF0A30
:103B500062088D0889088508490838083708000078
:103B60000000090A3606CF0986061C053909FE0839
:103B7000CF080609930B9F08C908C608C308C008E8
:103B8000B908CC08B608B308B008AD08A908A5085C
:103B9000A108CD059B08970893082564202564207B
:103BA0002564202564003C740020000D0A002030AC
:103BB0003E0020313E003C583E003C4F3E003C5908
:103BC0000025642025782025782025782025782058
:103BD0002578003C6D496E76616C696420506163A4
:063BE0006B65743E00005D
:1070000055C000006EC000006CC000006AC00000E7
:1070100068C0000066C0000064C0000062C00000DC
:1070200060C000005EC00000DAC400005AC000006A
:1070300058C0000056C0000054C0000052C00000FC
:1070400050C0000076C000004CC000004AC00000E4
:1070500048C0000046C0000044C0000042C000001C
:1070600040C000003EC000003CC000003AC000002C
:1070700038C0000036C0000034C0000032C000003C
:1070800030C000002EC000002CC000002AC000004C
:1070900028C0000026C0000024C0000022C000005C
:1070A00020C000001EC000001CC0000011241FBE34
:1070B000CFEFDAE0DEBFCDBF11E0A0E0B1E0EEEF50
:1070C000FEE702C005900D92AA3CB107D9F711E086
:1070D000AAECB1E001C01D92A03EB107E1F781D357
:1070E0000CC78ECFF89410926F001092810010920E
:1070F00085001092840081E085BF15BE47980C94EE
:10710000000008952091D4013091D5012F5F3F4FA9
:107110003093D5012093D401932F37FF03C08EEF16
:10712000831B982F990F921710F447980895479A48
:1071300008951F920F920FB60F9211242F938F93E1
:107140009F93EF93FF93109285001092840080919B
:10715000CA019091CB01009729F001979093CB0140
:107160008093CA018091CC019091CD01009729F0C4
:1071700001979093CD018093CC01E0E0F0E0859100
:1071800094918F5F9F4F49F08091CE019091CF01F4
:1071900001969093CF018093CE01FF91EF919F9143
:1071A0008F912F910F900FBE0F901F90189584E034
:1071B0008093E9000DC08091E8008B778093E80010
:1071C00003C08EB3882351F08091E80082FFF9CF8D
:1071D0008091E80085FFEFCF8091F1000895982F0E
:1071E00083E08093E9008091E80085FD0DC08091E7
:1071F000E8008E778093E80003C08EB3882361F0A7
:107200008091E80080FFF9CF9093F10084E690E050
:107210009093CB018093CA0108954F925F926F9231
:107220007F928F929F92AF92BF92CF92DF92EF9216
:10723000FF920F931F93CF93DF9384E08093E90035
:107240008091E80082FF56C284E690E09093CD01E1
:107250008093CC01ACDF182F853481F48CE195E26A
:107260009093CF018093CE0107B600FCFDCFF99932
:10727000FECF81E180935700E89503C0843519F46F
:1072800096DF8DE00DC28C34E1F38035D1F3843785
:1072900021F484E4A4DF80E003C2813611F489E59F
:1072A000FFC18134B1F483DF182F81DF90E0880FB4
:1072B000991FAA2797FDA095BA2F312F330F20E0F1
:1072C000442737FD4095542F822B932BA42BB52BAD
:1072D000B8C1803711F483E5E3C1833549F4C0E0D8
:1072E000D1E089917CDF21E0C730D207D1F7D9C145
:1072F000863521F481E373DF80E3D2C1833731F433
:1073000087E86DDF85E96BDF8EE1CAC18536B9F4A8
:10731000E0E0F0E093E085E090935700E89507B651
:1073200000FCFDCF80935700E89507B600FCFDCF29
:10733000E058FF4FA0E7E030FA0771F7A2CF82379D
:1073400039F4E1E0F0E089E0809357008491A8C12E
:10735000863439F4E0E0F0E089E0809357008491CE
:107360009FC18E3439F4E3E0F0E089E08093570068
:10737000849196C1813539F4E2E0F0E089E08093B0
:10738000570084918DC1823631F489E528DF80E091
:1073900026DF80E885C1823419F0873609F0E5C020
:1073A0001092CF011092CE0102DF082F00DFF82EDD
:1073B000FEDE682E8554823008F071C1902F80E087
:1073C000CF2DD0E0C82BD92B10926F00173609F0C3
:1073D0004BC081E180935700E895DD24CC24C39411
:1073E0003FC0E090D001F090D1010091D201109106
:1073F000D301B6E46B16D9F4ED2DF0E0EE29FF29A8
:10740000E4918E2FECDEDD2081F082E090E0A0E0C0
:10741000B0E0E80EF91E0A1F1B1FE092D001F092A7
:10742000D1010093D2011093D301DC2418C0D801FC
:10743000C701B695A7959795879549D5D0DE82E087
:1074400090E0A0E0B0E0E80EF91E0A1F1B1FE092DA
:10745000D001F092D1010093D2011093D301219772
:10746000209709F0BECF7DC08090D0019090D101CF
:10747000A090D201B090D30196E4691609F05DC0E6
:1074800083E0F40180935700E89507B600FCFDCF38
:1074900054C0F6E46F1661F5772031F1E090D00129
:1074A000F090D1010091D2011091D30180DED82E4D
:1074B000CC24852D90E08C299D29F7010C01409268
:1074C0005700E895112482E090E0A0E0B0E0E80EDB
:1074D000F91E0A1F1B1FE092D001F092D101009308
:1074E000D2011093D30102C062DE582E742423C04F
:1074F000E090D001F090D1010091D2011091D30120
:1075000016950795F794E79452DE682FC701E7D4E4
:107510008091D0019091D101A091D201B091D3017D
:107520000296A11DB11D8093D0019093D101A0932B
:10753000D201B093D301219704C055247724442469
:107540004394209709F0A5CF96E4691641F485E0AD
:10755000F40180935700E89507B600FCFDCF8DE05D
:107560003EDE82E080936F009CC0833471F4009112
:10757000D0011091D1011BDE90E021E0F8010C0157
:1075800020935700E89511247CCE833619F5E090BE
:10759000D001F090D1010091D2011091D30107DE0A
:1075A000F701E16090E021E00C0120935700E8959D
:1075B000112482E090E0A0E0B0E0E80EF91E0A1F7E
:1075C0001B1FE092D001F092D1010093D2011093E1
:1075D000D30157CE8D3661F4E091D001F091D10105
:1075E00085E080935700E89507B600FCFDCF49CEB3
:1075F000823551F4E091D001F091D10105911491BF
:10760000812FEDDD802F4CC0843421F5E090D00136
:10761000F090D1010091D2011091D30116950795F8
:10762000F794E794C4DD682FC70159D48091D00145
:107630009091D101A091D201B091D3010296A11DE8
:10764000B11D8093D0019093D101A093D201B0934A
:10765000D30117CE843609F5E090D001F090D10126
:107660000091D2011091D301D801C701B695A79519
:10767000979587952CD4B3DD82E090E0A0E0B0E050
:10768000E80EF91E0A1F1B1FE092D001F092D101F3
:107690000093D2011093D30104C08B3111F08FE31A
:1076A0009EDD83E08093E9009091E8008091E800FE
:1076B0008E778093E80095FF04C010C08EB38823B6
:1076C000C9F08091E80080FFF9CF8091E8008E77C3
:1076D0008093E80003C08EB3882361F08091E800B6
:1076E00080FFF9CF84E08093E9008091E8008B77F8
:1076F0008093E800DF91CF911F910F91FF90EF9061
:10770000DF90CF90BF90AF909F908F907F906F90C1
:107710005F904F9008959091D801892F8F77813293
:1077200049F58091D9018032A1F0813219F5913A61
:1077300009F58091E800877F8093E8008DE091E073
:1077400067E070E0FBD18091E8008B778093E800E0
:107750000895913279F48091E800877F8093E80062
:107760008DE091E067E070E04DD28091E8008E7787
:107770008093E800089582E061EC42E0A7D083E0C6
:1077800061E842E1A3D084E060E842E19FC084B7B1
:10779000877F84BF88E10FB6F894809360001092D1
:1077A00060000FBE20E880E090E00FB6F8942093D0
:1077B0006100809361000FBE81E085BF92E095BFBC
:1077C0003F9AE1E6F0E0208310824798109289000A
:1077D0008DE78093880090936F0083E08093810011
:1077E000E6C04091000850910108109201081092E3
:1077F000000824B714BE88E10FB6F89480936000A7
:10780000109260000FBEE0E0F0E0859194918F5FF0
:107810009F4F71F020FD0BC021FD0AC0283041F4BC
:107820008091090190910A014817590709F05ADC23
:10783000AEDF78941092CF011092CE010CC0EDDC37
:1078400034D38091CE019091CF018151974210F0B5
:107850001092140157DC80911401882381F78091E4
:10786000E00081608093E0003DDC80E090E00895DE
:10787000FA01923049F0933061F09130F9F485E1EA
:1078800091E022E130E01EC087E291E02EE330E09B
:1078900019C0882329F485E691E024E030E012C085
:1078A000813029F489E691E022E230E00BC0823099
:1078B00029F487E991E028E130E004C080E090E01D
:1078C00020E030E091838083C90108958093E9002E
:1078D0008091EB0081608093EB001092ED0060934B
:1078E000EC004093ED008091EE00881F8827881FF0
:1078F00008958091D80188238CF403C08EB3882327
:10790000B1F08091E80082FFF9CF8091E8008B7799
:107910008093E80008958EB3882349F08091E800B1
:1079200080FFF9CF8091E8008E778093E80008957A
:10793000EF92FF920F931F9345D04CD008ED10E0CB
:10794000F80180818F778083808180688083808147
:107950008F7D808319BC1EBA1092D60180EEE82E6E
:10796000F12CF70180818B7F8083F8018081816019
:10797000808380E060E042E0A9DFE1EEF0E080811A
:107980008E7F8083E2EEF0E0808181608083808161
:1079900088608083F70180818E7F8083F8018081F9
:1079A000806180831F910F91FF90EF900895E7ED24
:1079B000F0E08081816080838AE482BF81E08093EF
:1079C000D701B6CFE8EDF0E080818E7F8083109202
:1079D000E20008951092DA001092E10008951F92DB
:1079E0000F920FB60F9211242F933F934F935F93F3
:1079F0006F937F938F939F93AF93BF93EF93FF9377
:107A00008091DA0080FF1AC08091D80080FF16C0F4
:107A10008091DA008E7F8093DA008091D90080FF18
:107A20000AC019BC82E089BD09B400FEFDCF81E027
:107A30008EBB3AD203C019BC1EBA36D28091E10087
:107A400080FF17C08091E20080FF13C08091E200A8
:107A50008E7F8093E2008091E20080618093E2005B
:107A60008091D80080628093D80019BC85E08EBBDD
:107A70001BD28091E10084FF2BC08091E20084FF43
:107A800027C019BC82E089BD09B400FEFDCF8091FA
:107A9000D8008F7D8093D8008091E1008F7E809305
:107AA000E1008091E2008F7E8093E2008091E2000D
:107AB00081608093E2008091D601882331F4809127
:107AC000E30087FD02C081E001C084E08EBBECD101
:107AD0008091E10083FF21C08091E20083FF1DC0FF
:107AE0008091E100877F8093E10082E08EBB10925D
:107AF000D6018091E1008E7F8093E1008091E200C9
:107B00008E7F8093E2008091E20080618093E200AA
:107B100080E060E042E0DADEC7D1FF91EF91BF91F3
:107B2000AF919F918F917F916F915F914F913F9115
:107B30002F910F900FBE0F901F9018959C014091B0
:107B4000DE015091DF014617570718F4F90190E064
:107B500044C06115710511F0AB01F8CF8091E800C8
:107B60008E778093E80040E050E0F0CF8EB388231A
:107B700009F444C0853009F443C08091E80083FFD4
:107B800002C081E008958091E80082FD31C08091BB
:107B9000E80080FF22C08091F3009091F200782FDE
:107BA00060E0292F30E0262B372B07C0819180938E
:107BB000F100415050402F5F3F4F4115510519F0E2
:107BC0002830310598F390E02830310509F491E030
:107BD0008091E8008E778093E8004115510531F6D9
:107BE000992321F605C08EB3882341F0853041F0FA
:107BF0008091E80082FFF7CF80E0089582E0089549
:107C000083E008959C016115710529F48091E800D5
:107C10008B778093E800F90126C08EB3882391F119
:107C2000853091F18091E80083FF02C081E00895E2
:107C30008091E80082FFF1CF06C08091F10081932E
:107C40006150704059F02091F3008091F200322F82
:107C500020E090E0822B932B892B79F78091E8002C
:107C60008B778093E80061157105B9F605C08EB376
:107C7000882341F0853041F08091E80080FFF7CF04
:107C800080E0089582E0089583E008950F931F93A4
:107C9000DF93CF9300D0CDB7DEB7E8EDF1E0809170
:107CA000F100819381E0E03EF807C9F734DD80916F
:107CB000E80083FFE4C08091D8019091D90195300C
:107CC00009F46DC0963040F4913081F1913070F03C
:107CD000933009F0D4C02AC0983009F4A3C0993079
:107CE00009F4B2C0963009F0CAC07CC0803809F4EB
:107CF000C6C0823809F0C3C08091DC0187708093D0
:107D0000E9008091EB001092E9002091E800277FC4
:107D10002093E80090E025E0969587952A95E1F775
:107D200081708093F1001092F10087C0882319F0D0
:107D3000823009F0A4C08F71823009F0A0C0809118
:107D4000DA01882331F52091DC01277009F497C00E
:107D50002093E9008091EB0080FF1BC0933021F459
:107D60008091EB00806213C08091EB008061809372
:107D7000EB0081E090E002C0880F991F2A95E2F79E
:107D80008093EA001092EA008091EB008860809373
:107D9000EB001092E9008091E800877F51C08823B2
:107DA00009F06DC01091DA011F770FB7F894809138
:107DB000E800877F8093E8009CDD8091E80080FFE9
:107DC000FCCF8091E3008078812B8093E300806872
:107DD0008093E300112311F482E001C083E08EBBA5
:107DE0000FBF4DC08058823008F049C08091DA0141
:107DF0009091DB016091DC01AE014F5F5F4F38DD98
:107E0000BC01009709F43BC08091E800877F809314
:107E1000E80089819A8192DE8091E8008B778093D7
:107E2000E8002DC0803859F58091E800877F809365
:107E3000E8008091D6018093F1008091E8008E7770
:107E40008093E80056DD1BC08823C9F49091DA01C5
:107E50009230A8F48091E800877F8093E8009093A7
:107E6000D60147DD8091D601882331F48091E3006B
:107E700087FD02C081E001C084E08EBB7CDC809184
:107E8000E80083FF0AC08091EB0080628093EB00E2
:107E90008091E800877F8093E8000F900F90CF914A
:107EA000DF911F910F91089508951F938EB388233A
:107EB00061F01091E9001092E9008091E80083FFE1
:107EC00001C0E4DE17701093E9001F910895F9993D
:107ED000FECF92BD81BDF89A992780B50895262FCF
:107EE000F999FECF1FBA92BD81BD20BD0FB6F8949F
:0E7EF000FA9AF99A0FBE01960895F894FFCF02
:107EFE004341544552494E41007777000800000037
:107F0E00000000080112011001020000089A230C63
:107F1E000001000201000109023E00020100803250
:107F2E0009040000010202010005240010010424CE
:107F3E0002040524060001070582030800FF090458
:107F4E000100020A000000070504021000010705E7
:107F5E00830210000104030904220341006400613E
:107F6E00006600720075006900740020004600650E
:107F7E00006100740068006500720020003300325A
:107F8E0000750034000000180341006400610066B3
:107F9E00007200750069007400200049006E0064D4
:107FAE000075007300740072006900650073002094
:0A7FBE00004C004C004300000000DE
:040000030000700089
:00000001FF
